:020000041028C2
:1000000000000C28DD52281051582810B156281035
:1000100055582810595828105D5828100000000025
:100020000000000000000000000000004157281000
:1000300061582810000000006558281069582810E1
:10004000D34F2810F94F28101F5028104550281062
:100050006B50281091502810B7502810DD502810F0
:100060006D58281071582810755828107958281084
:100070007D58281081582810855828108958281034
:1000800040F0200070472DE9F14FB0B09246049146
:100090000DF142013A9A2B9199464A7000200AE0EC
:1000A0001AF8011B0498309A90470028049000F039
:1000B00034860D98401C0D909AF8000050B1252808
:1000C000EED1002100220791089209910A920B912A
:1000D0000C9204E00D9800F022BE41F001011AF8E4
:1000E000010F2028F9D023280CD02B2804D02D284C
:1000F00005D0302809D00BE041F00201EFE741F0D4
:100100000401ECE741F00801E9E741F01001E6E7FE
:100110002A280FD1D9F8002052F8040BC9F8002082
:1001200000280F9003D540420F9041F004010AF1DE
:10013000010A14E00F92DFF8EC3B0AE00F989842B6
:1001400005DA00EB800402EB4402303A0F920AF128
:10015000010A9AF80020A2F130000A28EED39AF89A
:1001600000002E2803D04FF0FF320E9229E01AF83B
:10017000010F2A2809D1D9F8000050F8042BC9F83A
:1001800000000E920AF1010A1BE02D280CBF0AF1B3
:10019000010A002000220E92DFF8884B0BE040B9E4
:1001A0000E9AA24205DA02EB820503EB4503303BCF
:1001B0000E930AF1010A9AF80030A3F130020A2ADC
:1001C000EDD3ADF840100FF660309AF8001000F053
:1001D000EDFE08B11AF8010B8DF842009DF84200BF
:1001E000682805D19AF8000068280CD1622106E041
:1001F0006C2804BF9AF800006C2804D171218DF896
:1002000042100AF1010A12A806901AF801BBBBF1CC
:1002100025012CD01C3900F09481091F022940F2DD
:100220009081133900F0AB84093900F08A81891E6E
:1002300000F04085491E00F0ED84491E022940F27D
:100240008081091F00F0E684491F00F0EF80491EFD
:1002500000F09584491E00F0D780C91E0CD0891E7D
:1002600000F08D84C91E00F08A8400F02EBD0123A9
:100270000793252100F026BDD9F8000050F8044B63
:10028000C9F80000002C059440F0AB802B99487809
:10029000002800F0A1804FF0FF340FF6942000F00A
:1002A00095FE241A40F0398500F01BBD01236A46F3
:1002B00002A9304600F000FE002840F02E85641EA2
:1002C000F4D13096079C12AF74B1309E17F8011B21
:1002D0000498B0470028049000F01F850D98401C3A
:1002E000641E0D90F2D130960A9C3021002C8DF8BE
:1002F00000100CDD309E01236A4602A9304600F052
:10030000DBFD002840F00985641EF4D13096059F7E
:10031000089C74B1309E17F8011B0498B047002860
:10032000049000F0FA840D98401C641E0D90F2D1E8
:1003300030960B9C3021002C8DF800100CDD309E87
:1003400001236A4602A9304600F0B6FD002840F0BD
:10035000E484641EF4D1309605980899099C4718E6
:1003600074B1309E17F8011B0498B0470028049020
:1003700000F0D3840D98401C641E0D90F2D130968D
:100380000C9C3021002C8DF800100CDD309E0123D8
:100390006A4602A9304600F08FFD002840F0BD8477
:1003A000641EF4D130969DF8400041077FF584AE7D
:1003B0002020002D8DF800007FF77EAE309C0123B9
:1003C0006A4602A9204600F077FD002840F0A58487
:1003D0006D1EF4D130946FE60FF63C30059000F0BE
:1003E00080BC0E9D002D04D5204600F00FFE044673
:1003F00007E02A46204600F025FE002814BF041B13
:100400002C46089400F06DBCD9F8001051F8040B8C
:10041000C9F8001020F00004002121F0FF35CDE9DB
:10042000024512AB0593782100F040BC2B99487827
:1004300020B14FF0FF340FF6B02030E79DF84200B6
:10044000622860D0682817D06A283FD06C2806D070
:10045000712847D074282CD07A281DD062E0D9F8B2
:10046000001051F8040BC9F80010002866D14FF0B5
:10047000FF340FF68C2012E7D9F8001051F8040B66
:10048000C9F8001020B94FF0FF340FF6742006E7CA
:100490000D99018000F025BCD9F8001051F8040B2B
:1004A000C9F80010002849D14FF0FF340FF6502052
:1004B000F5E6D9F8001051F8040BC9F8001000282F
:1004C0003CD14FF0FF340FF63820E8E6D9F80010A1
:1004D00051F8040BC9F8001080B94FF0FF340FF643
:1004E0002020DCE6D9F8001051F8040BC9F8001000
:1004F00020B94FF0FF340FF60820D0E60D9AD3173D
:10050000C0E90023EDE3D9F8001051F8040BC9F855
:10051000001020B94FF0FF340FF6E410BFE60D993C
:100520000170DEE3D9F8001051F8040BC9F800108F
:1005300020B94FF0FF340FF6C810B0E60D990160F6
:10054000CFE39DF842004C2807BFD9F80010CA1D20
:10055000D9F80000C21D22F00702C9F80020D2E934
:1005600000010832C9F80020CDE90201C80F02D00D
:1005700007982D210AE0BDF84000810702D50798B1
:100580002B2103E0C00705D50798202112AA11549A
:10059000401C079012A807994BF0200300EB010CB8
:1005A000DDE90201CDE92C01612BCDF814C021ACAD
:1005B0000BD00E98002848BF062105D404BF4BF08D
:1005C0002000672801D101210E91DDE902014F00D1
:1005D00047EAD0777E15FF174FF0FF32974208BFEA
:1005E000964210D1090341EA10510003002908BFC7
:1005F000002808D0ABF1610503211A2D089118D30A
:100600000FF61C1110E0DDE902014A00521512F14B
:10061000010F11D108030FD1ABF1610503211A2D90
:1006200008911FD30FF600110322604600F036FD3B
:1006300057E30FF6E801F7E7DDE902016A4600F04B
:1006400081FDCDE902014BF02000612811D1059810
:1006500030210170821C0592BBF1610F0CBF782123
:10066000582102E00FF6BC01DEE741700798801CBC
:100670000790DDE9020120F0000231F0004308BFDD
:10068000002A02D10026002542E14BF02008B8F1F3
:10069000610F40F092800E98002847BF2121019100
:1006A000401C0190019FDDE92C017F1C00220023EA
:1006B000DDE9024500F07EFD38BF85F00045009978
:1006C0008DF88420091F002F00910DF1850632DD81
:1006D000204629460022002300F086FD2BD21C2252
:1006E00000F09CFD04460D4600F01AFEFF1F002F8F
:1006F000804609DD00F01BFE02460B4620462946D7
:1007000000F01CFE04460D46F01D0721B8F1000F55
:100710000CDD491E5EBF08F00F0200F8012D4FEA04
:100720002818F3D502E0002200F8012D491EFAD561
:10073000C61D002FCCDC0DF18500361A01980DF195
:1007400085048642D8BF304600282FD4B04206DA4E
:100750000DF185010A5C082AA8BF0F2100DA0021EB
:10076000024621AB134400E0401E13F80159521E0B
:100770008D42F9D00F2904D10DF185018B5C5B1CF2
:100780008B54002A04D50099091D21AC401C00910E
:10079000411E0BD4621813783033DDB23A2DA4BF5A
:1007A0005B443A3B491E02F80139F4D50E99002901
:1007B00040F1AC80421E0E92A8E00099DFF8E826D6
:1007C00047F29750414391FBF2F20092DDE92C454C
:1007D000C2F10702002A25F0004504DD2046294623
:1007E00000F03EFB0BE052420020DFF8C01600F0A4
:1007F00037FB02460B462046294600F0A8FD04467A
:100800000D46B8F1660F06BF009F0A3706270E98FF
:100810003F18142FC8BF142730208DF884000DF125
:100820008506002F34DD2046294600F099FD01465B
:100830000A4606F1080304200A26B2FBF6F606EB88
:10084000860EA2EB4E02303203F8012C0A22B6FBD0
:10085000F2F202EB820EA6EB4E063036401E03F893
:10086000026DE9D1083F002F03F10806D9DD0846E3
:1008700000F07DFD02460B462046294600F05EFD55
:100880000022DFF82C3600F079FD04460D46CAE759
:100890000DF18500361A0DF1850404E00098401E24
:1008A000761E0090641C20783028F7D0B8F1660FCF
:1008B00002D10098401C04E0B8F1650F0CBF012084
:1008C00000200E9940188642B8BF701E00281DD423
:1008D000B04204DA215C3429C8BF392100DC302160
:1008E0000246631E9D1800E0401E15F80169521E65
:1008F0008E42F9D0392902D1A15C491CA154002AA9
:1009000004D50099491C1C46401C00910646009DD8
:100910000E9F30B2002802DC01260FF210644BF06B
:100920002000662808BF6D1C15D067280FFA85F8CF
:1009300041D118F1040F44DBB84542DA9DF840007C
:100940006D1C010703D430B2B842D8BF074628B2A5
:100950003F1A48BF00270FFA85F8B8F1000F00F3DF
:10096000AF800898411C0891302205990A54002F45
:1009700003DC9DF84000010705D50898411C08914B
:100980002E2205990A5417EB080FB8BF7D422DB2ED
:100990006842ED1932B20B909542B8BF2E46059BC6
:1009A000089836B2099632462146184400F076FB84
:1009B000AD1B0C95CCE0BBF1610F15D14FF0700B66
:1009C00017E030B2B84204DA9DF840100A0758BF69
:1009D00007467F1E48BF0027BBF1670F14BF4FF0CB
:1009E000450B4FF0650B04E0BBF1410F08BF4FF022
:1009F000500B0898411C0891002F059914F8012B01
:100A00000A5403DC9DF84000010719D50898411CE1
:100A100008912E2205990A54002F11DD761E30B25E
:100A20008742B8BF3E460598089B32B2214618441B
:100A300000F034FB089836B23018BF1B08900B97B3
:100A4000059808990844B8F1000F80F800B003D465
:100A50002B224270821C04E02D2145464170821CED
:100A60006D4200212CAB28460AE004460A2094FB84
:100A7000F0F000EB8005A4EB450403F8014B491CA2
:100A800000B20028F1DC012906DC4BF020006528CB
:100A900004BF302002F8010B00292CAB08D1302014
:100AA00002F8010B06E0491E585C303002F8010BD9
:100AB0000029F8DC059908980844121A099247E0C1
:100AC00030B229B288421BDA0598089B32B221461F
:100AD000184400F0E3FA089936B271180891A8EBAF
:100AE0000600002F0B9003DC9DF84000020705D59F
:100AF000059A2E2050540999491C09910C9727E01A
:100B00000598089B2AB22146184400F0C7FA0898B5
:100B1000761B4044002F089003DC9DF840100A0724
:100B200004D5411C08912E2205990A5430B28742FF
:100B3000B8BF3E460598089B32B204EB0801184442
:100B400000F0ACFA089836B23018BE1B08900B962D
:100B50009DF8400000F01400102840F0C280079A71
:100B600008980B99821809988A1882180C980F997E
:100B70008018884280F2B580081A0A90B1E09DF88A
:100B80004200622808D068280ED06A2814D06C2849
:100B90001FD0712810D01CE0D9F8001051F8040BB8
:100BA000C9F80010C0B21AE0D9F8001051F8040BCF
:100BB000C9F8001080B212E0D9F80000C21D22F07E
:100BC0000702C9F80020D2E900010832C9F8002064
:100BD00006E0D9F8001051F8040BC9F80010002104
:100BE000CDE902019DF8400001075AD5DDE9022355
:100BF000002B08BF002A54D04BF02000782850D199
:100C0000079812A930220A54401C431C079301F88C
:100C100000B046E09DF84200622808D068280ED057
:100C20006A2814D06C281FD0712810D01CE0D9F885
:100C3000001051F8040BC9F8001040B21AE0D9F8BE
:100C4000001051F8040BC9F8001000B212E0D9F8F6
:100C50000000C21D22F00702C9F80020D2E90001FD
:100C60000832C9F8002006E0D9F8001051F8040B4A
:100C7000C9F80010C117CDE90201002902D5079873
:100C80002D210AE0BDF84000810702D507982B21ED
:100C900003E0C00705D50798202112AA1154401C73
:100CA000079012A8079901440591594602A800F03F
:100CB0004DF816E001200790D9F8000050F8041B09
:100CC000C9F800008DF848100BE001212522BBF186
:100CD000000F07918DF8482003D0022207928DF86B
:100CE00049B00F9D07990A986D1A08992D1A0B980B
:100CF0006D1A09992D1A0C986D1A9DF840102D1A2D
:100D000048073FF5DFAA2021002D8DF800107FF75E
:100D1000D9AA309E2C46FFF7C9BA4FF0FF3031B048
:100D2000BDE8F08FCBCCCC0C686A6C747A4C0000B8
:100D30007072696E74665F733A2062616420257315
:100D400020617267756D656E740000002DE9FC47C7
:100D500007468A463C6950466F2808BF082505D0DB
:100D6000FFF78EF9782814BF0A251025D7E900016E
:100D70003C2680468946BAF1640F18BFBAF1690F64
:100D800005D1002903D5D8F1000869EB4909B9F16B
:100D9000000F08BFB8F1000F0CD1386B50B9082D07
:100DA0003AD197F83800010736D530223B2684F82F
:100DB0003B2031E08DF800A0404649462A46EB171B
:100DC00000F0E6FA3032D0B2761E3A2801960EDAFA
:100DD000A255404649462A46EB1700F0D9FA80460C
:100DE0005FEA010908BFB8F1000F05D108E09DF8DE
:100DF00000001218513AEBE7F868A1198842DBD3DA
:100E0000082D09D197F83800010705D5A05D3028D5
:100E100002D0761E3020A055C6F13C03BB61A1195B
:100E2000F960386B834208DAC31A3B624FF6EF7001
:100E3000398F01403987BDE8F38700280ED597F830
:100E4000380000F01400102808D17A6B7969386AEC
:100E5000521A121AD21A002AC8BF3A62BDE8F387A2
:100E60002DE9D04306460F4614464FF00008DFF840
:100E7000449012E0E00707D542464B4630463946DB
:100E800000F07CFA06460F464046494642464B462D
:100E900000F074FA641080468946002CEAD130468E
:100EA0003946BDE8D0830000A08601000000F03F75
:100EB00084D7974100002440F8B505460E461746F2
:100EC0001C4600205CB117F8011BB068A847B06051
:100ED00030B1F06A401CF0620020641EF3D1F2BD14
:100EE0004FF0FF30F2BD00007072696E74665F7380
:100EF0003A20256E20646973616C6C6F77656400BD
:100F00007072696E74663A2062616420256E206199
:100F10007267756D656E7400000000006E616E0092
:100F20004E414E00696E6600494E46003000F0B4F6
:100F30000246106895681318506803EB5004C00708
:100F400048BF4D44A3422DD013F8016B16F00300A7
:100F500004BF13F8010BC01C31090F2907D113F886
:100F6000011B0F3103E013F8017B05F8017B401EE4
:100F7000F9D10029E6D013F8010BC6F38106032E40
:100F800008BF13F8016B00EB0620404228440026FE
:100F9000B71E8F421EBF10F8017B05F8017B761C3F
:100FA000F6D1CFE7F0BC02F10C007047C9B202786D
:100FB0008A421AB11CBF10F8012FF9E718BF0020B0
:100FC00070470268531C03601170704780B500B908
:100FD00006A005490B681BB122220021984701E0B9
:100FE00000F0EEFA222002BD187A0828636F6E73B3
:100FF000747261696E742068616E646C65723A2007
:10100000626164206D6573736167650000F10103BF
:10101000810704D010F8011B820781B1FAD1026860
:10102000A2F10131914311F0803104BF50F8042F37
:10103000F6E709BAB1FA81F100EBD100401CC01A01
:1010400070470000C9B2830706D0521E22D310F8A1
:10105000013B9942F7D11FE0083A13D302F1040291
:1010600041EA012141EA014150F8043B121F21BF2E
:101070004B40A3F1013C2CEA030C1CF0803FF3D061
:10108000C9B2001F083210F8013B521E28BF91EA76
:10109000030FF8D818BF0120401E704762B38B07BA
:1010A00008D0521E11F8013B00F8013B00F02480EB
:1010B0008B07F6D1830740F0208000BF103A07D39A
:1010C00030B4B1E83810103AA0E83810F9D230BC8A
:1010D000530724BFB1E80810A0E8081044BF51F836
:1010E000043B40F8043BD20724BF31F8022B20F820
:1010F000022B44BF0B7803707047121F17D35B009D
:1011000009D151F8043B20F8023B1B0C121F20F8B8
:10111000023BF6D20BE051F8043B00F8013B1B0AFE
:1011200020F8023B1B0C121F00F8013BF3D238BF22
:10113000121D521E24BF11F8013B00F8013BF8D8E4
:101140007047000010B5144600F002F8226010BD90
:10115000C1F30A5343B14A0012F5001F28D2A3F28B
:10116000FE32A1EB0251704750EA410C20D001F051
:10117000004C31EA0C01B1FA81F204BFB0FA80F3FD
:10118000D2180B3AB2F120032CBF00FA03F19140C0
:1011900041EA0C013EBFC2F1200C20FA0CF31943C6
:1011A0009040524240F2FD33D21A01EB0351704796
:1011B0000022704741EA030C50EA4C0C52EA0C0C36
:1011C0004FF4001C09D307D01CEB410F9CBF1CEB54
:1011D000430F8B4208BF824270471CEB430FFBD882
:1011E000994208BF9042704741EA030C50EA4C0C08
:1011F00052EA0C0C4FF4001C09D307D01CEB410F32
:101200009CBF1CEB430F994208BF904270471CEBF8
:10121000410FFBD88B4208BF8242704700B541ECBA
:10122000100B104600F004F851EC100B00BD00BF8D
:10123000020030EE101B40F2FF7C37D41CEA115341
:1012400013D063456BD09B18634504D201EB025168
:1012500020EE101B704701F0004141EA0C510020C4
:1012600041EC100BAFF30080704710EE100B50EA0A
:10127000410054D0B2F57F7F08D202EB5C01090532
:10128000002041EC110B20EE010B70474FF0FE41A6
:10129000002341EC113B20EE010BB2F57E7230EEE3
:1012A000101B4FEA410342EB5353CDE752421CEA75
:1012B000115316D0634532D09A4204D2A1EB0251A9
:1012C00020EE101B70475B1ED21AA1EB035120EEDB
:1012D000101B372A0CD3002001F0004141EC100B09
:1012E000C0E710EE100B50EA410018D0372AF2D2B6
:1012F000C2EB5C021105002041EC110BF1EE100A6B
:1013000020F01F0121F4F851E1EE101A20EE010B3C
:10131000F1EE101AE1EE100A11F0080FA2D1704799
:1013200041EC100BBDEEC00B10EE100A704700EE42
:10133000100AB8EEC00B51EC100B704741EC100BCB
:1013400043EC112B30EE410B51EC100B704741EC8C
:10135000100B43EC112B80EE010B51EC100B70477E
:1013600041EC100BBCEEC00B10EE100A704700EE03
:10137000100AB8EE400B51EC100B704741EC100B0B
:1013800043EC112B20EE010B51EC100B70470000C9
:10139000BBBBE1B1B2F5803F80F07E80022A1ED94E
:1013A0008C46B1FBF2F102FB11C31B0443EA10436C
:1013B000B3FBF2FC02FB1C3380B240EA0343B3FBF5
:1013C000F2F002FB103240EA0C4000237047022A80
:1013D00005D98446B0FBF2F002FB10C270474AB157
:1013E00005D100F0010249085FEA30007047002291
:1013F0000023704700F0E8B80B0002000021002035
:101400007047904271EB030CF6D3B3F5803F2FD2B7
:10141000F0B5B3FA83F7B1FA81F4A7F10F0E3D1BD3
:101420005340CEF1200602FA0EF2F3415340B5F1DB
:101430000F0746D80F3C2C444140C4F12006A04081
:10144000F1414140B1FBF3F603FB1611A2FB064547
:10145000001BA94102D2761E8018594180EA010280
:1014600021FA0EF362FA0EF200215A403046F0BD26
:1014700030B4B1FBF3FC03FB1C11A2FB0C45001BB9
:10148000A94103D2ACF1010C8018594130BC02468D
:101490000B46604600217047B2F1807F65D3F0B5FE
:1014A000B2FA82F7B1FA81F4C7F10F063D1B22FAB6
:1014B00006F307F1110EF24120355A40B5F10F073E
:1014C000B8D94140C4F12006A040F1414140B1FBF0
:1014D000F3FC03FB1C11A2FB0C45001BA94103D22A
:1014E000BCF1010C801859410F2F12D30F3FC903D3
:1014F00041EA5041B1FBF3F603FB1611A2FB06458E
:10150000D4EBC030A94102D2761E8018594146EA78
:10151000CC3C07B34140C7F12006B840F1414140FF
:10152000B1FBF3F603FB1611A2FB0645001BA94114
:1015300002D2761E8018594180EA010221FA0EF388
:10154000C7F1200462FA0EF20CFA07F05A402CFAA6
:1015500004F13043F0BD80EA010221FA0EF30021CC
:1015600062FA0EF260465A40F0BD8C46B1FBF2F1D1
:1015700002FB11C31B0243EA1063B3FBF2FC02FB44
:101580001C331B024CEA002043EA1063B3FBF2FC5D
:1015900002FB1C331B024CEA002043EA1063B3FB3E
:1015A000F2FC02FB1C331B024CEA002043EA1063EE
:1015B000B3FBF2FC02FB1C324CEA00200023704714
:1015C000012000F003B800007047000080B5AFF3C1
:1015D0000080024A11001820ABBEFBE72600020083
:1015E000DFF82C16C0B20860704710B50100DFF8B4
:1015F0001006007800280CD10820DFF808261060BB
:10160000C9B2012000F0F4FF0820DFF808160860D6
:1016100019E0DFF8F405082202601022DFF8E43553
:101620001A60DFF8E8450422226002220260080006
:10163000C0B2FFF7D5FF02202060082020601020F4
:10164000DFF8D015086010BD10B50100DFF8B00557
:101650000078002804D1C9B2012000F0C9FF11E0D0
:10166000DFF8A40508220260DFF8A045042222600A
:10167000022202600800C0B2FFF7B2FF0220206021
:101680000820206010BD70B50400DFF874050078F4
:10169000002805D1210089B2012000F0FEFF1BE0E7
:1016A000DFF8646508203060DFF8605504202860AA
:1016B00002203060200080B2000AC0B2FFF790FF25
:1016C00002202860022030602000C0B2FFF788FFAF
:1016D000022028600820286070BDF8B504000D00C5
:1016E000DFF81C050078002805D12A002100012020
:1016F00001F028F821E0DFF8106508203060DFF8FD
:101700000C750420386012E002203060208880B21E
:10171000000AC0B2FFF764FF022038600220306088
:101720002088C0B2FFF75CFF02203860A41C2800AC
:10173000451E0028E8D108203860F1BD2DE9F047AA
:10174000060015001F00DFF8D0843000B8F8002034
:1017500080B2904201D2012000E000200C00DFF8AE
:10176000BC9440F249124946C0B201F036FBDFF8A2
:10177000B0A42000BAF8001080B2884201D2012043
:1017800000E000204FF4A5724946C0B201F025FBED
:101790002800B8F8001080B2884201D2012000E091
:1017A000002040F24B124946C0B201F016FB38004F
:1017B000BAF8001080B2884201D2012000E0002077
:1017C0004FF4A6724946C0B201F007FB2A20FFF78A
:1017D0000CFF300080B2FFF756FF280080B2FFF701
:1017E00052FF2B20FFF701FF200080B2FFF74BFFD5
:1017F000380080B2FFF747FF2C20FFF7F6FEBDE868
:10180000F08700B585B0684601F005FB0120ADF812
:101810000000DFF804040088ADF80200DFF80004DF
:101820000088ADF80400DFF86C050078002803D0CC
:1018300002280FD007D30DE006208DF806000820FF
:101840008DF8070006E008208DF8060010208DF8BE
:101850000700FFE70FF2FD2003900FF21100049044
:10186000684601F0E8FA05B000BD00002DE9F0413E
:10187000DFF8A4532888400001F014FB0400002086
:101880000020DFF87C633078002803D10820DFF8DF
:1018900078130860DFF888733888431E9BB2288865
:1018A000421E92B200210020FFF748FF002007E00F
:1018B000DFF870130988020092B224F81210401C5D
:1018C00001002A8889B29142F2D35FF0000805E056
:1018D00029882000FFF701FF18F1010840463988E8
:1018E00080B28842F4D33078002803D10820DFF892
:1018F0001C130860200001F0DEFABDE8F081DFF87B
:101900009814087008780028012803D9801E01283F
:101910000AD912E0F020DFF8001308804FF4A0701D
:10192000DFF8FC12088008E04FF4A070DFF8E8123E
:101930000880F020DFF8E81208807047DFF85C24A8
:101940001080DFF8E00201807047F8B5D8B00500DC
:101950000E0014002800DFF8C012098880B2884207
:1019600001D2012000E00020DFF8B07240F25D22D9
:101970003900C0B201F031FA3000DFF8A412098852
:1019800080B2884201D2012000E0002040F25E22B5
:101990003900C0B201F021FA00200020DFF86072A7
:1019A0003878002803D10820DFF85C120860DFF8DF
:1019B000E4030078002804D0022800F0C18047D357
:1019C000BEE0F31D9BB26A1D92B2310089B22800BD
:1019D00080B2FFF7B3FE002000E0401C0100C9B256
:1019E000062930DA0621DFF8B8232300DBB24B43A7
:1019F0001A440300DBB21A4412F8C02C00230CE096
:101A000040AD1E00F6B24E4356FA80F6DFF814C21F
:101A1000BCF800C025F816C011E01D00EDB2082D7D
:101A2000DBDAD507ECD540AD1E00F6B24E4356FAD0
:101A300080F6DFF868C3BCF800C025F816C0D2B243
:101A400052085B1CE9E7302140A8FFF746FE77E02B
:101A500016F10F039BB2EA1D92B2310089B2280041
:101A600080B2FFF76BFE002000E0401C0100C9B20D
:101A7000082960DADFF82C232100C9B209011144DA
:101A80000300DBB21944B1F5007109782300DBB221
:101A90001B011A440300DBB21A44B2F5FC7212783F
:101AA00000231DE06D461E00F6B2F60056FA80F6E1
:101AB000DFF870C1BCF800C025F816C00DE0CD07F6
:101AC000F0D56D461E00F6B2F60056FA80F6DFF845
:101AD000CCC2BCF800C025F816C0C9B249085B1CCE
:101AE0001D00EDB2082DEADB00210DE06B460D0074
:101AF000EDB2ED0055FA80F503EB4503DFF8245114
:101B00002D88A3F8805012E00B00DBB2082BACDA72
:101B1000D307EBD56B460D00EDB2ED0055FA80F51D
:101B200003EB4503DFF874522D88A3F88050D2B23E
:101B30005208491CE8E780216846FFF7CEFDFFE721
:101B40003878002802D108203049086059B0F0BD2B
:101B500000000000F8B504000E0015002000DFF8BA
:101B6000B810098880B2884201D2012000E000202C
:101B7000DFF8A87040F2BA223900C0B201F02DF9A6
:101B80003000DFF89C10098880B2884201D2012021
:101B900000E0002040F2BB223900C0B201F01DF984
:101BA00000270EE00CE0380080B22A5C310089B2D8
:101BB000380080B2C00010FA84F080B2FFF7C5FE92
:101BC0007F1C380080B2285C002817D0DFF8D801CD
:101BD0000078002803D00228E4D0E4D3F0E73800EE
:101BE00080B22A5C310089B23B009BB2062043439D
:101BF00013FA84F080B2FFF7A8FEE1E7F1BD000020
:101C0000207A0828040B3140040631400806314090
:101C100080063140080B3140646608281C552810A6
:101C2000666608286A6608282DE9F84F0600150040
:101C30009A46DFF8C8443000228880B2904201D230
:101C4000012000E000200F00DFF8B48440F2913260
:101C50004146C0B201F0C1F83800DFF89C14098891
:101C600080B2884201D2012000E00020009540F2BD
:101C700092324146C0B201F0B0F80098002801D07D
:101C8000012000E0002040F293324146C0B201F052
:101C9000A4F800200020002000202088400001F04F
:101CA00001F98046DFF85C9499F80000002803D120
:101CB0000820DFF8541408600C9C0B9DE019431EAB
:101CC0009BB2A819421E92B2390089B2300080B28C
:101CD000FFF734FD5FF0000B0A9E0D9F06E0290020
:101CE00089B24046FFF7F9FC1BF1010B200080B2DE
:101CF000834542D2300080B200FB0BF0210089B254
:101D0000B0FBF1F1504680B24143009801440022FB
:101D10000EE04FF6FF7028F8120008E03B00DBB23F
:101D200080B29BB29842F4D2002028F81200521CD4
:101D3000280080B28242D2D2504680B200FB02F02C
:101D40002B009BB2B0FBF3F0085C3B00DBB2002B36
:101D5000E4D10300DBB2DB08DBB2DB0284465FFACE
:101D60008CFC5FEA9C0C5FFA8CFC53EA4C13C0F3CA
:101D7000C400034328F81230D9E799F8000000287E
:101D800003D10820DFF884130860404601F093F87F
:101D9000BDE8F18F6F660828217A08286866082850
:101DA000284A2810384428106F660828FEB5C0B2AB
:101DB000002830D10020D3490870D74CB4202070BF
:101DC000D64D58202870D64E6320307008200290DF
:101DD00004200190012000900123D24A002101201B
:101DE00000F018FD032300220121B32001F092F836
:101DF000032300220121207801F08CF80323012223
:101E00000121307801F086F803230122012128788E
:101E100001F080F85FE00120BA490870BE48B321A4
:101E20000170BE4C58212170BD4D632129700323E0
:101E300000220121007801F06DF803230022012126
:101E4000207801F067F8032301220121287801F0AE
:101E500061F8032300220121622001F05BF80323D3
:101E600000220121612001F055F803230122012104
:101E7000B42001F04FF8032301220121682001F072
:101E800049F8032301220121692001F043F80323CB
:101E9000012201216A2001F03DF8032301220121E2
:101EA0006B2001F037F80323012201216C2001F09F
:101EB00031F80323012201216D2001F02BF80323C7
:101EC000012201216E2001F025F8032301220121C6
:101ED0006F2001F01FF8944C2078FFF710FD8C481C
:101EE00001888C480088FFF729FD904D01268B481A
:101EF000017811F0070116FA01F10078C01015EB16
:101F0000C0100160844F387810F0070016FA00F016
:101F10003978C910864A12EBC1121060052001F011
:101F2000F1F8387810F0070086403878C01015EBCB
:101F3000C0152E60782001F0E5F8724D2878002851
:101F400002D10820704908601120FFF74EFB78206D
:101F500001F0D8F83620FFF748FB2078002805D09C
:101F600002280BD006D303280CD00EE00020FFF788
:101F70006BFB0AE0C020FFF767FB06E07020FFF76D
:101F800063FB02E0A020FFF75FFB3A20FFF72DFB89
:101F90000520FFF759FBB220FFF727FB0C20FFF7C6
:101FA00053FB0C20FFF750FB0020FFF74DFB3320C5
:101FB000FFF74AFB3320FFF747FBB720FFF715FB7E
:101FC0003520FFF741FBBB20FFF70FFB2920FFF770
:101FD0003BFBC220FFF709FB0120FFF735FBC320C5
:101FE000FFF703FB1920FFF72FFBC420FFF7FDFAD3
:101FF0002020FFF729FBC520FFF7F7FA1A20FFF78B
:1020000023FBC620FFF7F1FA1F20FFF71DFBD020AE
:10201000FFF7EBFAA420FFF717FBA120FFF714FB53
:10202000E020FFF7E2FAD020FFF70EFB0820FFF7D1
:102030000BFB0E20FFF708FB0920FFF705FB09202B
:10204000FFF702FB0520FFF7FFFA3120FFF7FCFA4C
:102050003320FFF7F9FA4820FFF7F6FA1720FFF7C9
:10206000F3FA1420FFF7F0FA1520FFF7EDFA31200C
:10207000FFF7EAFA3420FFF7E7FAE120FFF7B5FAB5
:10208000D020FFF7E1FA0820FFF7DEFA0E20FFF775
:10209000DBFA0920FFF7D8FA0920FFF7D5FA152057
:1020A000FFF7D2FA3120FFF7CFFA3320FFF7CCFA4F
:1020B0004820FFF7C9FA1720FFF7C6FA1420FFF7E8
:1020C000C3FA1520FFF7C0FA3120FFF7BDFA34201C
:1020D000FFF7BAFA2120FFF788FA2920FFF785FADF
:1020E0002878002802D1082008490860FFF7BEFBC5
:1020F000FFF787FBF7BD00006666082864660828BE
:102100001C552810207A0828040631400806314062
:102110006A660828686608287066082871660828B4
:102120007266082880C3C901217A08280800314056
:1021300004003140C0F840127047D0F80802C005D2
:10214000C00D7047D0F80802C0F3C030704738B5F2
:1021500005002800FFF7F1FF04002800FFF7F2FF59
:102160000419002C01D1012000E00020C0B232BDD2
:102170000068C0F38130002801D1802000E04020B9
:102180007047016851F000410160704720300268DB
:1021900061F39B6202607047022801D3012010E0C6
:1021A0000B00DBB2042B01DB01200AE0DFF84C3628
:1021B00003EB8000C9B2405C824201D3012000E001
:1021C00000207047F8B504000F0015001E00022C17
:1021D00001D301202AE02A003900C9B22000FFF70C
:1021E000DBFF012801D1012020E006983900C9B2A7
:1021F00002291ED1B6F5803F19D2202817D24FF4FC
:10220000C052DFF8FC1563030B4403EB8503134452
:102210001F6866F317271F606403214401EB8501E3
:1022200011440A6860F3C7020A600020F2BD012071
:10223000FCE7FFB2032F1FD1B6F1807F1AD220280E
:1022400018D24FF4E052DFF8B81563030B4403EBE8
:10225000850313441F6807F0FF0757EA06271F602E
:102260006403214401EB850111440A6860F3C7024D
:102270000A60DAE70120D9E70120D7E700B20012AF
:10228000C0B27047F8B505000E001700280000B274
:10229000FFF7F4FF04002000C0B2022801D30120A0
:1022A00024E03A003100C9B22000C0B2FFF774FF49
:1022B000012801D1012019E0DFF844152000C0B247
:1022C000400308442A00D2B200EB8200D0F8000C90
:1022D000F6B266F3092067F30700E4B26403214411
:1022E000EDB201EB8501C1F8000C0020F2BD70B524
:1022F00004000D001600022C01D301201DE0320065
:102300002900C9B22000FFF747FF012801D10120B1
:1023100013E0DFF8EC146003085850F0004050F070
:10232000407050F47F00EDB265F3092066F30700BA
:102330006203885064030859002070BD0100C0206A
:10234000C9B2002905D0022907D004D3032906D039
:1023500006E0122004E0622002E07A2000E01A2069
:10236000C0B270470100C020C9B2002905D00229BF
:1023700007D004D3032906D006E0112004E0612031
:1023800002E0792000E01920C0B270470100C020AF
:10239000C9B2002905D0022907D004D3032906D0E9
:1023A00006E0102004E0602002E0782000E0182021
:1023B000C0B270470100C020C9B200290BD0022969
:1023C0000DD00AD304290ED00BD306290FD00CD37D
:1023D00007290ED00EE013200CE014200AE0632041
:1023E00008E0642006E07B2004E0292002E01B20B6
:1023F00000E01C20C0B2704701000020C9B20029D3
:1024000005D0022907D004D3032906D006E0132003
:1024100004E0132002E0132000E01320C0B2704754
:1024200001000020C9B2002905D0022907D004D339
:10243000032906D006E0132004E0132002E0132055
:1024400000E01320C0B2704701000020C9B200298B
:1024500005D0022907D004D3032906D006E01320B3
:1024600004E0132002E0132000E01320C0B2704704
:1024700001000020C9B200290BD002290DD00AD3D7
:1024800004290ED00BD306290FD00CD307290ED068
:102490000EE013200CE013200AE0132008E01320C4
:1024A00006E0132004E0132002E0132000E01320D4
:1024B000C0B27047C9B2082902D0102946D096E0B0
:1024C000DFF840130200D2B251F82220126832F431
:1024D00040420300DBB251F823301A600200D2B24E
:1024E00051F82220D2F80022520952010300DBB237
:1024F00051F82330C3F800220200D2B251F8222052
:10250000D2F8002252F007020300DBB251F8233068
:10251000C3F800220200D2B251F82220D2F80023E0
:10252000520952010300DBB251F82330C3F80023F3
:102530000200D2B251F82220D2F8002352F0070252
:10254000C0B251F82000C0F8002350E0DFF8B41208
:102550000200D2B251F82220126832F44042030045
:10256000DBB251F823301A600200D2B251F82220B7
:10257000126852F480420300DBB251F823301A6033
:102580000200D2B251F82220D2F8002252095201A0
:102590000300DBB251F82330C3F800220200D2B2AC
:1025A00051F82220D2F8002252F00F020300DBB2D1
:1025B00051F82330C3F800220200D2B251F8222091
:1025C000D2F80023520952010300DBB251F8233044
:1025D000C3F800230200D2B251F82220D2F800231F
:1025E00052F00F02C0B251F82000C0F8002370472B
:1025F000F8B504000E0008212000C0B2FFF75AFF12
:10260000DFF804522000C0B2285C08280FD0200058
:10261000C0B2285CC010DFF8F41111EBC01101202A
:102620002200D2B2AA5C12F0070290400860DFF8E4
:10263000D471F6B231002000C0B257F82000FFF785
:1026400079FD2000C0B257F82000FFF791FD060089
:102650002000C0B257F82000FFF76FFD8642F0D08F
:102660002000C0B257F82000FFF771FD0028F7D016
:102670002000C0B2285C08280ED02000C0B2285C20
:10268000C010DFF88C1111EBC0110120E4B22A5DFB
:1026900012F0070290400860F1BDF8B504000E008A
:1026A00010212000C0B2FFF705FFDFF85C512000C9
:1026B000C0B2285C08280FD02000C0B2285CC0102F
:1026C000DFF8481111EBC01101202200D2B2AA5C40
:1026D00012F0070290400860DFF82871B6B23100AE
:1026E0002000C0B257F82000FFF724FD2000C0B240
:1026F00057F82000FFF73CFD06002000C0B257F855
:102700002000FFF71AFD8642F0D02000C0B257F833
:102710002000FFF71CFD0028F7D02000C0B2285C85
:1027200008280ED02000C0B2285CC010DFF8E010EE
:1027300011EBC0110120E4B22A5D12F007029040B3
:102740000860F1BD2DE9F84307000D0014001021C9
:102750003800C0B2FFF7AEFEDFF8AC603800C0B2A0
:10276000305C08280FD03800C0B2305CC010DFF8F1
:102770009C1011EBC01101203A00D2B2B25C12F0F1
:10278000070290400860DFF87C8029883800C0B2DA
:1027900058F82000FFF7CEFCAD1C3800C0B258F846
:1027A0002000FFF7E5FC81463800C0B258F8200051
:1027B000FFF7C3FC8145F0D0641E002CE3D1380044
:1027C000C0B258F82000FFF7C2FC0028F7D038004C
:1027D000C0B2305C08280ED03800C0B2305CC010E7
:1027E000DFF82C1011EBC0110120FFB2F25D12F0E6
:1027F000070290400860BDE8F183000004582810EB
:102800000000044038660828107A08280400314087
:10281000080031402DE9F84F2DED028B9EB00600E7
:102820000F009946042080B202FB00F2A848B0FBDA
:10283000F2F8A74802FB180000EE100AB8EE400BB1
:1028400001EE102AB8EE411B80EE010BBFEEED0B3E
:1028500010EE100B08EE100A3421002201AC20000B
:1028600000F0E0FC3C2100220EAC200000F0DAFC7D
:1028700030004946C0B2C9B2884201D1012000E00F
:1028800000202A9DDFF84CA24FF470725146C0B26E
:1028900000F0A3FA48462900C0B2C9B2884201D16B
:1028A000012000E000202B9C40F2C1325146C0B212
:1028B00000F093FA062002902800C0B2FFF7B0FDA6
:1028C0008DF80C002800C0B2FFF74CFD82465FF087
:1028D000080B2800C0B2FFF745FD7F4D01AA9AFB07
:1028E000FBF10BFB11AA5146C0B2C010C001284435
:1028F00000F057FD062002904846C0B2FFF77CFD6D
:102900008DF80C004846C0B2FFF718FD82465FF014
:10291000080B4846C0B2FFF711FD01AA9AFBFBF174
:102920000BFB11AA5146C0B2C010C001284400F0F0
:1029300038FD2000C0B204281ED0082002902000DC
:10294000C0B2FFF781FD8DF80C002000C0B2FFF788
:102950001DFD81465FF0080A2000C0B2FFF716FD9A
:1029600001AA99FBFAF10AFB11994946C0B2C010BD
:10297000C001284400F015FD2C9C2000C0B208289E
:102980001ED0062002902000C0B2FFF771FD8DF826
:102990000C002000C0B2FFF70DFD81465FF0080A71
:1029A0002000C0B2FFF706FD01AA99FBFAF10AFB6D
:1029B00011994946C0B2C010C001284400F0F1FC92
:1029C0003000C0B2032803D23000C0B2401C00E087
:1029D00000203200D2B2D21D032110F58F7000B258
:1029E000FFF750FC3000C0B2032803D23000C0B261
:1029F000401C00E0002010F58F7000B2FFF73EFC95
:102A00008DED008AB8F1010843463200D2B2D21DE2
:102A10000321C0B2FFF7D6FB3000C0B2032803D2B7
:102A20003000C0B2401C00E0002010F58F7000B2F2
:102A3000FFF724FC3200D2B2D21D0321C0B2FFF74F
:102A400056FCFFB2002F05D0022F09D005D3032F6B
:102A500009D00AE00020109007E00120109004E067
:102A60000220109001E00320109001200E90002021
:102A70000F9004201190082012900820139001203C
:102A80008DF8500001208DF85300104D00220EA942
:102A90003000C0B255F8200000F0C2FC0021300028
:102AA000C0B255F82000FFF771FB3000C0B255F8F6
:102AB0002000FFF766FB0448F6B284551EB0BDEC5B
:102AC000028BBDE8F18F0000107A082838660828CC
:102AD00000B4C404905528100000314082B000209A
:102AE0000190002000900020019009E00098401C17
:102AF00000900098B0F5005FF8D30198401C019059
:102B00000198B0F5805F02D200200090F1E702B09A
:102B1000704780B50100002000F0ACFD01BD2DE93B
:102B2000F043ADF5137D0700884616001C00002019
:102B3000ADF802000020ADF8000000200290002057
:102B4000ADF804000020ADF806004046FEF75EFA3E
:102B50000290DFF824532888002801D02869804794
:102B6000DFF818030078002800F033812888002857
:102B700000F01181BDF90600411CADF806103A00C5
:102B8000010089B20020EB68984747464046FEF7AF
:102B90003DFA02906888A97990FBF1F0ADF8040045
:102BA0003800471C00780028FAD10020ADF800005A
:102BB0000EE07F1E38782F2802D038785C2804D1A8
:102BC000BDF80000401CADF800000298401E0290C5
:102BD000BDF80000022802DA02980028E9D5029820
:102BE000002806D47A1CDFF8981253A800F052FD92
:102BF0000EE0BDF80000002805D13A00A14953A815
:102C000000F048FD04E03A009D4953A800F042FD61
:102C10000020ADF8020042E0BDF80010BDF8002031
:102C2000BDF8023053AF9BB2BDF90400434313FA21
:102C300082F0385C43AA89B25054BDF80000401CB1
:102C4000ADF80000BDF8000080B2BDF90410884264
:102C50000EDA53A8FEF7DAF9BDF80020BDF802300D
:102C60009BB2BDF904104B4313FA82F18842D3D2D0
:102C7000002043A9BDF800208854BDF90600411C7E
:102C8000ADF8061043AAE97911FB00F189B20020E2
:102C9000EB689847BDF80200401CADF80200BDF893
:102CA000027053A8FEF7B2F9BDF90410B0FBF1F0C1
:102CB000401CBFB2874203D20020ADF80000C1E73C
:102CC0003200714953A800F0E5FCBDF90600411C33
:102CD000ADF8061053AAE97911FB00F189B2002082
:102CE000EB689847002C74D00020ADF8020041E05A
:102CF000BDF80010BDF80020BDF802309BB2BDF950
:102D00000400434313FA82F0205C43AA89B2505472
:102D1000BDF80000401CADF80000BDF8000080B216
:102D2000BDF9041088420EDA2000FEF76FF9BDF8F5
:102D30000020BDF802309BB2BDF904104B4313FADA
:102D400082F18842D4D2002043A9BDF800208854E3
:102D5000BDF90600411CADF8061043AAE97911FB44
:102D600000F189B20020EB689847BDF80200401CD2
:102D7000ADF80200BDF802602000FEF747F9BDF98A
:102D80000410B0FBF1F0401CB6B2864221D2002004
:102D9000ADF80000C1E74FF4807100220DF10C097D
:102DA000484600F03FFA3800A9688847002C07D051
:102DB000009433004246354903A800F06BFC05E05F
:102DC00033004246324903A800F064FC03A8A96816
:102DD00088470DF5137DBDE8F08338B50C0015006C
:102DE000C0B2002803D12B480078002800D131BDA3
:102DF00029490878002800D0FEE70878401C0870B0
:102E000000F07CFC00232A0021002448FFF787FE05
:102E1000FFF764FEF6E7002101804FF6FF71418065
:102E20008180FF218171C171002181600021C16019
:102E3000002101617047104902880A8042884A8057
:102E400082888A8082798A71C279CA7182688A602E
:102E5000C268CA60006908610120084908707047AB
:102E600000B585B06846FFF7D6FF0D48029068466A
:102E7000FFF7E1FF05B000BDD47908281E7A0828C5
:102E8000E0572810C0572810EC5728102457281056
:102E9000A85728106E6608281F7A0828D0572810CF
:102EA000132B281010B500F02FFC040008BFFEF70C
:102EB00087FB204610BD00F0C5BC0000012212FABD
:102EC00001F181607047012212FA01F141607047FF
:102ED00080B5C9B200290ED00100C9B2082291FB09
:102EE000F2F302FB13112D4AC0B2C010C00110440E
:102EF000FFF7E4FF0DE00100C9B2082291FBF2F3F5
:102F000002FB1311254AC0B2C010C0011044FFF7E4
:102F1000DAFF01BD2DE9F8418DB004000E00150067
:102F20001F0034210022E846404600F07BF9F6B24B
:102F3000002E0ED1FFB2002F02D0022F03D005E0E9
:102F40000F2001900DE0082001900AE00820019078
:102F500007E0FFB2042F02D10F20019001E00E2004
:102F600001902000C0B2C0280FD02100C9B20820B3
:102F70006A4691FBF0F300FB131108482300DBB213
:102F8000DB10DB01184400F00CFA2900C9B2200064
:102F9000C0B2FFF79DFF0EB0BDE8F08100003140E8
:102FA000022801D301200FE00B00DBB2042B01DB70
:102FB000012009E0954B03EB8000C9B2405C8242DE
:102FC00001D3012000E000207047F8B506000F0093
:102FD00015001C00022E01D301201CE02A0039003C
:102FE000C9B23000FFF7DCFF012801D1012012E057
:102FF0003800C0B2002811D1B4F5807F0CD28448CB
:103000007603304400EB850010F58050016864F3CE
:103010000F2101600020F2BD0120FCE7FFB2012F6B
:1030200010D1B4F5803F0BD279487603304400EBE1
:10303000850010F5A050016864F317210160E9E7ED
:103040000120E8E70120E6E700B20012C0B27047B5
:10305000F8B505000E001700280000B2FFF7F4FFD6
:1030600004002000C0B2022801D3012023E03A006E
:103070003100C9B22000C0B2FFF792FF012801D190
:10308000012018E062492000C0B2400308442A0031
:10309000D2B200EB8200D0F8000CF6B266F3092041
:1030A00067F30700E4B264032144EDB201EB85014C
:1030B000C1F8000C0020F2BD70B504000D00160030
:1030C000022C01D301201CE032002900C9B22000EB
:1030D000FFF766FF012801D1012012E04C4960038F
:1030E000085850F0004050F0407050F47F00EDB2AE
:1030F00065F3092066F307006203885064030859EA
:10310000002070BDF8B504004FF4FA504443414D1F
:10311000414E00212878C001304400F05AFC14E0F0
:103120002878C001304400F056FCB842F8D33B4F39
:103130003C192878C001304400F04DFC3F1839009C
:103140002878C001304400F044FC4CF25137BC42B6
:10315000E6D22878C001304400F03DFC8442F8D229
:10316000F1BD38B594B0502100226C46200000F02B
:1031700059F82B4C00220121B4F90000FFF768FF39
:10318000B4F90000FFF760FF092300220121C0B25B
:10319000FFF71BFFB4F90000FFF756FF00220121E3
:1031A000C0B2FFF789FF5FF0FF30009000208DF87C
:1031B000040000208DF8050000208DF80600002096
:1031C0008DF8080003208DF84400012012900120A2
:1031D0008DF807000F4C104D69462078C001284437
:1031E00000F032FB2078C001284400F0EDFB002104
:1031F0002078C001284400F0ECFB2078C00128446E
:1032000000F0EBFB15B030BD0000000004582810A2
:10321000000004407366082800005940B03CFFFFDE
:103220006C66082862F30F2262F31F42401810F008
:10323000030308D0C91A1FD3DB0748BF00F8012DCC
:1032400028BF20F8022D130030B41446154610395B
:1032500028BF20E93C00FAD8490728BF20E90C0024
:1032600048BF40F8042D890028BF20F8022D48BF30
:1032700000F8012D30BC7047C91818BF00F8012DA7
:10328000CB0728BF00F8012D7047000030B4614B18
:103290001818C009604C14EB001404290DD22368DF
:1032A0001F25C8008540AB43D2B212F01F02C900EF
:1032B00012FA01F1194321600CE0091F63681F2510
:1032C000C8008540AB43D2B212F01F02C9008A4049
:1032D0001A43626030BC7047002A04D1012212FAFE
:1032E00001F1416003E0012212FA01F181607047AF
:1032F00010B48900436C0F248C40A34312F00F02DA
:1033000012FA01F11943416410BC704710B4836C88
:1033100001248C40A34312F0010212FA01F1194377
:10332000816410BC704710B4C36C01248C40A3436B
:1033300012F0010212FA01F11943C16410BC704786
:1033400010B449001031C36C03248C40A34312F025
:10335000030212FA01F11943C16410BC70474269BB
:10336000012212FA01F141614069704710B483698A
:1033700001248C40A34312F0010212FA01F1194317
:10338000816110BC704710B44900036C03248C4069
:10339000A34312F0030212FA01F11943016410BCB5
:1033A0007047F8B505000E0014000027002D2ED040
:1033B000002C2CD0226831002800FFF78DFF227AE4
:1033C00031002800FFF762FF626931002800FFF733
:1033D0009DFFA26931002800FFF7A5FFE2693100D7
:1033E0002800FFF7ADFF626831002800FFF780FF7B
:1033F000E26831002800FFF7C6FF31002800FFF720
:10340000AEFF226931002800FFF7B0FF00E0034F54
:103410003800F2BD0000CFBF0000304001005A006C
:103420002DE9F041DFF8D0311C00DFF8D051D5F89C
:1034300000C0DFF8CC512D68DFF8C8613668DFF8CE
:10344000C8713F685FF0000E5FF0000E002800F0CA
:10345000D080002900F0CD804C68002C01D18C6810
:1034600005E04C68022C01D1002400E00224D1F8D0
:1034700010E0D1F81480C64502D3D1F810E001E085
:10348000D1F814E0BEF1090F08D23CF4404C91F899
:103490002130002B12D05CF4807C11E0BEF1110FC2
:1034A00003D2012363F38F3CF1E7BEF1210F03D276
:1034B000022363F38F3CEAE718009BE03CF4807C36
:1034C000CB685B1E13F00F035FEA1C1C5FEA0C1C49
:1034D00053EA0C0C012363F3196CC0F800C00B7F96
:1034E000002B01D0002300E0012363F300054B68AB
:1034F0001B0963F34105CB7E63F304154B7E63F335
:1035000045150B68012B01D1012300E0002363F373
:10351000DF7523005B0863F3820564F3C3054B7F0B
:1035200063F308258B7F63F34925CB7F63F38A25FB
:1035300091F8203063F3CB250B7913F0030363F389
:10354000196505620B7E63F308278B7E63F34927B9
:103550000B695B1E13F01F037F097F011F43C0F837
:10356000007391F8243003F0FF0310F541742568CF
:103570002D0A2D022B4323600B7E63F308264B6933
:103580005B1E13F01F03760976011E43C0F800622C
:1035900091F82C3003F0FF0310F5017425682D0A13
:1035A0002D022B4323600B6BC0F8883F8B6AC0F859
:1035B000C83F91F8383010F57064256863F34925E9
:1035C000256091F8391010F574631C6861F3CB2401
:1035D0001C600021C0F8C81E002A09D0002010601D
:1035E000002090610020D0600020D0610748106268
:1035F00000242000BDE8F0810140AA002C582810CA
:10360000305828103458281038582810EFCDAB0007
:10361000C0F840127047D0F80802C005C00D7047CE
:10362000D0F80802C0F3C030704738B50500280054
:10363000FFF7F1FF04002800FFF7F2FF0419002C48
:1036400001D1012000E00020C0B232BD38B5040035
:10365000DFF83C50C9B22000C0B255F82000FFF797
:10366000D7FF2000C0B255F82000FFF7DEFF00288A
:10367000F7D031BD38B504000D0005E029782000F1
:10368000C0B2FFF7E3FF6D1C28780028F6D131BDEA
:10369000486608280CB430B583B00A4606A90291E2
:1036A000044600250194009502AB01A9084878441E
:1036B0001E30FCF7E8FC019A157000284EBF044646
:1036C0000198041B204603B030BC5DF80CFB00BF22
:1036D000F3D8FFFF002800D162B607480168491CF3
:1036E0000160704772B604490868002802D0086873
:1036F000401E0860086870470C7A082880B5FFF7FC
:10370000F1FF00F071F901BD10B50446AFF3008080
:10371000204600F005F80446AFF30080204610BDB7
:10372000F8B500F10F04E408E400A0422BD2082C05
:1037300004D2082402E0083000F047F8DFF8002146
:103740001368190005D1002007E00568A5420DD2D5
:10375000011D08680028F8D11868111D00E0191D26
:103760000B6883420BD01D68A542F8D359B10B6892
:1037700018680838A04208D2586808600FE000F0C6
:1037800043F90028D7D10020F2BD181908601D1D8B
:10379000586828511E680F68361B3E601C60096817
:1037A00000291DBF48680028081D0020106003F193
:1037B0000800F2BD10B5040006D0AFF3008020462B
:1037C00000F003F8AFF3008010BD002800D170476F
:1037D00070B4A0F108021368072B2ED913F0070F5D
:1037E0002BD1DFF85C40616809B18A4203D2516095
:1037F000626015E00146486808B19042FAD3086853
:103800000E18B24219D3964203D11B180B600A4618
:1038100006E0486810B1134498420ED350604A60E5
:10382000506850B11368D518854206D1002626602D
:103830000168CB1813604068506070BC704700008E
:10384000E8790828FFF7B6BF10B4012291F84C3090
:10385000052B03D291F84D30052B01D31000A7E0C2
:10386000002800F0A480002900F0A180514A1268CD
:103870004B7963F392428B7913F0030363F31142A4
:103880000B7A13F0070363F31A62CB7963F39E722A
:103890000B7D63F3000291F8243063F34102026070
:1038A0000A7910F130031C6862F307041C604A793E
:1038B000012A0BD18A79002A02D10022826007E016
:1038C0008A79012A04D10A68826001E001228260BB
:1038D000CA6802610A694261CA6982610A6AC26190
:1038E0000A680262344A12680B7E03F0FF03120A70
:1038F00012021A4391F8303003F0FF0363F31742CA
:1039000091F8403003F0FF0363F31F6291F84830F1
:1039100003F0FF0363F30F224264284A126891F810
:10392000383003F0FF03120A12021A4391F82830CC
:1039300003F0FF0363F30F228264214A12688B7D38
:1039400013F00303920892001A4391F8253013F004
:10395000030363F38B2291F82C3013F0030363F31A
:10396000051291F8343013F0030363F3092291F840
:103970003C3013F0030363F3871291F8443013F0E3
:10398000030363F38302C2640E4A126891F84C3059
:1039900013F00703D208D2001A4391F84D3013F008
:1039A000070363F306124265497D81670022100018
:1039B00010BC70473C582810405828104458281014
:1039C000485828104C582810016851F000410160F7
:1039D000704781607047806870474030016851F0DF
:1039E0001001016070470000002007E00549C20196
:1039F0008A5822F00042C301CA50401C3F28F5DB20
:103A000070470000000058400749086808B10020CE
:103A100070470648C008C00008600549C908C900C9
:103A2000091A0160704700BF147A082807DC0B28C8
:103A300000E00B28DFF8C4110868C0F3400000283C
:103A400001D0022002E0086810F001007047DFF8A2
:103A5000B001006810F0010070470000C21E022A89
:103A600001D3012002E0C01E0860002070471CB591
:103A7000FF246946FFF7F2FFC0B2002802D0200001
:103A8000C0B207E0DFF8FC01009950F8210010F007
:103A90000100C0B216BD0000002801D0032801D3E8
:103AA000012002E0401E0860002070471CB5FF2482
:103AB0006946FFF7F1FFC0B2002802D02000C0B273
:103AC00008E0DFF8C401009909010844C06810F05B
:103AD0000100C0B216BD0000DFF8BC01006880081C
:103AE00010F00100704738B504002000C0B208286B
:103AF00011D3DFF898511822DFF89411280000F054
:103B00000DFC0020E87540F65B00DFF888110860C6
:103B1000002000F03BFCDFF8CC112000C0B251F8CF
:103B20002000C0F30020002805D0E4B251F82400A2
:103B300010F00F0000E0FF2032BD38B50400200077
:103B4000C0B2082811D3DFF844511822DFF8401121
:103B5000280000F0E3FB0020E8754FF40960DFF86F
:103B600034110860002000F011FCDFF87801E4B2A5
:103B700050F82400C0F30110C0B232BDDFF8682154
:103B80001368C3F3072303601068C0F3C400086020
:103B90007047DFF858211368C3F3072303601068E8
:103BA000C0F3C4000860704738B50400072C11D377
:103BB000DFF8D8501822DFF8C411280000F0AEFB5F
:103BC0000020E8754FF4CE70DFF8C81008600020C0
:103BD00000F0DCFBDFF8A00150F8240010F0070033
:103BE000010009B2042907D1DFF8880150F8240048
:103BF00010F01F0050F4807000B232BD2415264032
:103C000040152640DFF8B01209688A03920B026063
:103C1000090E11F00101C171DFF8A01209680A0054
:103C2000D204D20C82800A00120C02F0FF02028140
:103C3000090C01F0FF014181DFF84411096811F01E
:103C40000F0202730A00C2F3031242730A00120A3F
:103C5000D204D20CC281090F11F003010174DFF804
:103C6000641309680A00120A12F0070282710A003E
:103C7000120CD205D20D4282890F11F0010101759B
:103C8000704700004016264000192640BC790828DD
:103C900014542810F0790828100027401CB50C0097
:103CA0006946FFF7DBFE0100C9B2002901D0C0B2AE
:103CB00017E0DFF8B404009950F8210010F07F01FC
:103CC0002160C0F304216160C0F30441A1600100E0
:103CD000090F11F003016173C00E10F00100207391
:103CE000002016BD40122640080020400804204055
:103CF0001CB50C006946FFF7CFFE0100C9B20029D0
:103D000001D0C0B235E0DFF8101500980001085866
:103D100000F0FF022260C0F304226260C0F304429C
:103D2000A260000F10F00300207300980001084407
:103D300042681000C00F6073C2F30270002801D007
:103D4000012000E00020A07322F07F422261009851
:103D50000001084480680100C90F21750100090EA7
:103D600011F001016175A075000C10F00700E075FD
:103D7000002016BD0001264000122640985428104D
:103D80003815264080B50100DFF868051822FDF7D8
:103D900095F90120DFF860150870002002BDDFF8FA
:103DA0005C150968C90F002908D0DFF84C1509789F
:103DB000002907D100210160032070470021016024
:103DC0000320FAE7DFF82C15096801600020F4E70A
:103DD00010B50400FFF72EFE002803D1002020605C
:103DE00003200DE0DFF810050078002805D0DFF88B
:103DF000040580682060002002E00020206003208D
:103E000010BD0000DFF8F0140978002905D0DFF8B4
:103E1000E41449680160002002E0002101600320F1
:103E20007047DFF8DC140968C90F002908D0DFF8F3
:103E3000C8140978002907D10021016003207047C8
:103E4000002101600320FAE7DFF8A814C9680160C7
:103E50000020F4E7DFF8AC140968C90F002908D086
:103E6000DFF894140978002907D1002101600320AC
:103E70007047002101600320FAE7DFF87814096930
:103E800001600020F4E710B50400FFF725FE0028CC
:103E900003D10020206003200DE0DFF85C040078EF
:103EA000002805D0DFF84C0440692060002002E0C3
:103EB00000202060032010BD301526403415264018
:103EC00010B50C00C0B2FFF76FFE00280ED001281D
:103ED00010D0022812D0B0F5887F13D040F2111113
:103EE000884213D0B0F58A7F14D017E02000FFF786
:103EF00056FF16E02000FFF785FF12E02000FFF7D5
:103F000067FF0EE02000FFF78CFF0AE02000FFF7BC
:103F1000BAFF06E02000FFF79DFF02E000202060CE
:103F2000032010BD80B501000020FFF7C9FF02BDCE
:103F300080B50322D2B2824203D200200860012061
:103F400003E0401CC0B2FFF7BBFF02BD18B587B04D
:103F500004006846FFF7E6FF0100C9B2002903D05C
:103F600000212160C0B22BE001A8FFF74BFE9DF8B5
:103F70001400022803D100982060002020E0DFF820
:103F800088030068C00F002808D0FFF760FDC0B2AA
:103F9000002807D100202060032011E00098206055
:103FA00000200DE0009901984143BDF80800B1FBE5
:103FB000F0F09DF80B10491CB0FBF1F020600020E0
:103FC00008B010BD3C152640F0B58BB005000C00C4
:103FD00069462800C0B2FFF7ABFF0100C9B2002953
:103FE00003D000212160C0B2BCE02800C0B202288A
:103FF0004CD307A92800C0B2401CFFF74FFEC0B247
:10400000002811D0DFF804631822DFF80413300011
:1040100000F084F90020F07540F66310DFF8F41228
:104020000860002000F0B2F94F482900C9B200EB47
:10403000810050F8080CC00F002807D09DF8290017
:10404000022807D10098206000208BE000982060B3
:10405000002087E0EDB26D1C2800FFF708FD01008D
:10406000C9B2002902D0C0B2FF2803D100202060CD
:10407000032077E00099079841430898B1FBF0F0DE
:104080000999B0FBF1F0206000206BE001A9280045
:10409000C0B2401CFFF72CFEC0B2002811D0DFF8E0
:1040A0006C621822DFF86812300000F037F9002047
:1040B000F07540F67F10DFF85C120860002000F019
:1040C00065F955482900C9B209014058C00F0028B8
:1040D00007D09DF81000022807D10098206000202A
:1040E00040E00098206000203CE0EDB26D1C28000C
:1040F000FFF7DCFC0100C9B2002902D0C0B2FF28E2
:1041000003D10020206003202CE09DF8110001283D
:104110001DD1009A0023019E00273F0647EA16277B
:1041200036060598002136184F41A6FB020106FB12
:10413000031107FB0211029A039BA3FB0223FDF765
:1041400027F9000E40EA0120090E206009E00099DD
:10415000019841430298B1FBF0F00399B0FBF1F0F4
:10416000206000200BB0F0BD0016264010B50323E0
:10417000421E0400E4B2002C03D10800FFF7E6FE63
:104180000CE01400DBB2E4B2A34204D31000C0B2CE
:10419000FFF71AFF02E0C0B2FFF792FE10BD38B57C
:1041A00005000C002800C0B2FFF79DFC0100C9B259
:1041B000FF2904D12000FFF7F2FDC0B21BE06946E1
:1041C000C0B2FFF7D3FF0100C9B2002903D000211C
:1041D0002160C0B20FE02800C0B2FFF7AEFCC0B251
:1041E000002805D002280BD006D303280CD00FE0FE
:1041F00000982060002032BD009840082060F9E758
:10420000009880082060F5E70098C0082060F1E77A
:10421000002020600320EEE7001926401FB50400AF
:1042200002A90120FFF7BBFF0100C9B2002903D09A
:1042300000212160C0B21AE0694601A8FFF79EFC88
:1042400001980021421C71F1FF335B0143EAD26304
:1042500052010098002112184B4102980021490197
:1042600041EAD0614001FDF793F82060002004B0DE
:1042700010BD1FB5040002A90120FFF790FF010047
:10428000C9B2002903D000212160C0B21AE06946FA
:1042900001A8FFF77EFC01980021421C71F1FF3359
:1042A0005B0143EAD26352010098002112184B418E
:1042B00002980021490141EAD0614001FDF768F808
:1042C0002060002004B010BD80B5DFF84C100A68F3
:1042D000C2F303220E2A07D00968C1F303210D2976
:1042E00005D1FFF7C6FF02BDFFF798FFFBE70120EE
:1042F000F9E70000A47908281C7A08281815264038
:10430000081526400C15264030152640BC79082893
:1043100098542810F07908280000204001B58B0738
:104320001AD1830724D1121F21D351F8043BA3F1E2
:10433000013C2CEA030C1CF0803C04BF40F8043B19
:10434000F1E79CFA8CFCBCFA8CF1C1F118018B40AE
:10435000CB4040F8043B13E0042A09D311F8013B99
:10436000521E00F8013B5BB18B07F7D1D9E7121D54
:104370005AB111F8013B521E00F8013B03B1F8D1CC
:1043800011001CBF0022FEF751FF01BD01BEFEE778
:1043900080B5234A23490B6893423ED00A60224AE3
:1043A00012684A62214A8A6202684A6042688A60E8
:1043B0008268CA60C2680A6102694A6142698A61A8
:1043C0008269CA61C2690A62F1EE102A12F0900F86
:1043D00023D0174A8A62026ACA62426A0A63826A00
:1043E0004A63C26A8A63026BCA63426B0A64826B65
:1043F0004A64C26B8A64026CCA64426C0A65826C4D
:104400004A65C26C8A65026DCA65426D0A66826D34
:104410004A66C26D8A66006EC86600F00BF801BD80
:10442000FAF9F8F73479082828ED00E0A4A3A2A14E
:10443000ABAAA9A8FEE700000000000000000000F1
:104440000000000000000000000000F80000000074
:10445000000000333000000000100C06100C0600B5
:10446000000000000000000040C07840C07840001C
:10447000043F04043F040400007088FC083000007E
:10448000001820FF211E0000F008F000E0180000D6
:1044900000211C031E211E0000F00888700000008F
:1044A0001E2123241927211010160E0000000000E1
:1044B0000000000000000000000000E018040200FE
:1044C000000000071820400000020418E00000006F
:1044D0000040201807000000404080F0804040006D
:1044E0000202010F01020200000000F000000000C3
:1044F0000101011F01010100000000000000000097
:1045000080B070000000000000000000000000000B
:104510000001010101010101000000000000000094
:10452000003030000000000000000000806018042F
:10453000006018060100000000E010080810E0000C
:10454000000F102020100F00001010F800000000D5
:104550000020203F2020000000700808088870001C
:10456000003028242221300000300888884830009C
:104570000018202020110E000000C02010F80000BC
:1045800000070424243F240000F808888808080055
:104590000019212020110E0000E01088881800006A
:1045A000000F112020110E0000380808C83808003C
:1045B0000000003F000000000070880808887000BC
:1045C000001C222121221C0000E010080810E0003D
:1045D0000000312222110F00000000C0C0000000C6
:1045E00000000030300000000000008000000000EB
:1045F00000008060000000000000804020100800E3
:1046000000010204081020004040404040404000AB
:104610000404040404040400000810204080000086
:104620000020100804020100007048080808F0008B
:104630000000003036010000C030C828E810E0005B
:104640000718272423140B000000C038E0000000E6
:10465000203C23020227382008F888888870000050
:10466000203F202020110E00C03008080808380024
:10467000071820202010080008F808080810E0009B
:10468000203F202020100F0008F88888E80810003C
:10469000203F20202320180008F88888E808100010
:1046A000203F200003000000C03008080838000048
:1046B00007182020221E020008F808000008F80849
:1046C000203F210101213F20000808F808080000D0
:1046D0000020203F2020000000000808F808080003
:1046E000C08080807F00000008F888C0281808007B
:1046F000203F20012638200008F8080000000000B4
:10470000203F20202020300008F8F800F8F80800AA
:10471000203F003F003F200008F830C00008F808A4
:10472000203F200007183F00E01008080810E000B4
:104730000F10202020100F0008F808080808F000CB
:10474000203F210101010000E01008080810E000EE
:104750000F18242438504F0008F888888888700083
:10476000203F2000030C3020007088080808380023
:104770000038202121221C00180808F80808180019
:104780000000203F2000000008F808000008F8089A
:10479000001F202020201F000878880000C838084B
:1047A000000007380E010000F80800F80008F800C3
:1047B000033C0700073C030008186880806818085D
:1047C00020302C03032C30200838C800C8380800DB
:1047D0000000203F2000000010080808C83808002A
:1047E0002038262120201800000000FE02020200CE
:1047F0000000007F40404000000C30C0000000007E
:10480000000000010638C00000020202FE000000A5
:10481000004040407F00000000000402020204004B
:104820000000000000000000000000000000000088
:104830008080808080808080000202040000000070
:104840000000000000000000000080808080000068
:104850000019242222223F2008F800808000000056
:10486000003F112020110E00000000808080000019
:10487000000E112020201100000000808088F80028
:10488000000E112020103F2000008080808000005A
:10489000001F222222221300008080F088888818BE
:1048A0000020203F202000000000808080808000C9
:1048B000006B94949493600008F80080808000005E
:1048C000203F210000203F20008098980000000039
:1048D0000020203F20200000000000809898000069
:1048E00000C08080807F000008F800008080800089
:1048F000203F24022D302000000808F800000000AE
:104900000020203F20200000808080808080800068
:10491000203F20003F20003F8080008080800000FA
:10492000203F210000203F20000080808080000088
:10493000001F202020201F008080008080000000B9
:1049400080FFA12020110E000000008080808000E8
:10495000000E112020A0FF808080800080808000D9
:1049600020203F2120000100000080808080800006
:104970000033242424241900008080E0808000007B
:104980000000001F202000008080000000808000C8
:10499000001F202020103F20808080000080808029
:1049A00000010E30080601008080008000808080B9
:1049B0000F300C030C300F000080800080808000DE
:1049C0000020312E0E312000808080000080808009
:1049D00080818E70180601000080808080808000B9
:1049E0000021302C2221300000000000807C0202D7
:1049F00000000000003F404000000000FF000000F9
:104A000000000000FF0000000002027C80000000A7
:104A10000040403F000000000006010102020404C3
:104A20000000000000000000000000000000000086
:104A3000002F000000000700070000147F147F14FF
:104A400000242A7F2A120062640813230036495585
:104A5000225000000503000000001C22410000005D
:104A600041221C000014083E08140008083E0808F3
:104A7000000000A06000000808080808000060604E
:104A80000000402010080402003E5149453E00004D
:104A9000427F4000004261514946002141454B316F
:104AA000001814127F10002745454539003C4A493B
:104AB00049300001710905030036494949360006AD
:104AC0004949291E00003636000000005636000015
:104AD0000008142241000014141414140000412290
:104AE000140800020151090600324959513E007C68
:104AF0001211127C007F49494936003E4141412252
:104B0000007F4141221C007F49494941007F09093A
:104B10000901003E4149497A007F0808087F0000EA
:104B2000417F4100002040413F01007F08142241A5
:104B3000007F40404040007F020C027F007F04085D
:104B4000107F003E4141413E007F09090906003EB9
:104B50004151215E007F09192946004649494931E2
:104B60000001017F0101003F4040403F001F204005
:104B7000201F003F4038403F0063140814630007C3
:104B80000870080700615149454300007F4141001A
:104B9000020408102040000041417F00000402018F
:104BA0000204004040404040000001020400002098
:104BB00054545478007F48444438003844444420D6
:104BC00000384444487F00385454541800087E0983
:104BD00001020018A4A4A47C007F0804047800004B
:104BE000447D4000004080847D00007F1028440008
:104BF0000000417F4000007C04180478007C080419
:104C0000047800384444443800FC24242418001854
:104C1000242418FC007C0804040800485454542040
:104C200000043F444020003C4040207C001C2040C9
:104C3000201C003C4030403C004428102844001C0C
:104C4000A0A0A07C004464544C4414141414141404
:104C500038B500F077F900F042F800F0C9F8714972
:104C60000868800312D4BFF34F8FBFF36F8F00200B
:104C70006D4A1060BFF34F8FBFF36F8F086850F419
:104C800000300860BFF34F8FBFF36F8F0868C00319
:104C900024D40020654A1060BFF34F8F6448026837
:104CA000C2F34E33C2F3C90443F6E07010EA431076
:104CB00050EA84705F4D28602000441E0028F3D124
:104CC0001800431E0028EDD1BFF34F8F086850F441
:104CD00080300860BFF34F8FBFF36F8F31BD70B569
:104CE00086B0684654491822FCF7E8F900200AE02B
:104CF00069460200D2B201EBC2014968491C11F0B9
:104D0000070F0DD1401C0100C9B2032909D2694621
:104D10000200D2B211F8321011F0070FE8D0FEE70E
:104D2000FEE7464C207810F0070F00D0FEE7444D18
:104D30002868401C10F0070F00D0FEE7002622E094
:104D400068463100C9B200EBC10041683000C0B212
:104D500052F8300000F043F814E000200028EFD0B3
:104D60002168491E3000C0B252F8300000F037F818
:104D700068463100C9B200EBC10041682868401C98
:104D800000F02DF8761C3000C0B2032825D26A4608
:104D90003000C0B252F83000002813D02068310033
:104DA000C9B252F8311088420AD368463100C9B2FC
:104DB00000EBC10040682168884201D30120CDE7A3
:104DC0000020CBE768463100C9B200EBC100406863
:104DD00021688842C1D30120C0E706B070BD00221F
:104DE000002302E0C0E9002308308842FAD370476C
:104DF00030B4144880081449144A002308E01C0009
:104E0000E4B252F824401D00EDB241F825405B1C8D
:104E10001C000500E4B2EDB2AC42F0D30C480160D6
:104E200030BC704714ED00E050EF00E084ED00E08E
:104E300080ED00E060EF00E07857281084532810E0
:104E40008853281080000000807A0828000028106D
:104E500008ED00E010B5002042490860BFF34F8F15
:104E600041480168C1F34E32C1F3C90343F6E07013
:104E700010EA421050EA83703C4C20601800431E38
:104E80000028F3D11000421E0028EDD1BFF34F8F50
:104E9000BFF36F8FBFF34F8FBFF36F8F0020344985
:104EA0000860BFF34F8FBFF36F8F00F001F810BDA4
:104EB00038B586B068462F491822FCF7FFF86846D7
:104EC000FEF760FFC0B200280DD02B4C18222B49F2
:104ED0002000FFF723FA0020E0754E2028490860E3
:104EE0000020FFF753FA274D2800FFF7EDF9C0B275
:104EF00000280DD0204C182220492000FFF70EFA80
:104F00000020E07550201E4908600020FFF73EFA9F
:104F10001D49286808600A681C4882181C48B2FBB2
:104F2000F0F01C4A10601C48096801F2E7314FF4A8
:104F30007A72B1FBF2F101600068C00317490860A2
:104F400007B030BD80B500F02DF815490A6852F45D
:104F500070020A60BFF34F8FBFF36F8F00F026F827
:104F600001BD000084ED00E080ED00E074EF00E0A2
:104F700050EF00E090572810BC7908288C53281077
:104F8000F0790828F4790828F87908283F420F00BA
:104F900040420F00007A0828FC790828047A082883
:104FA00088ED00E0EFF3108072B6704780F3108850
:104FB00070470000010009B2002908D4012210F056
:104FC0001F018A404F4900B2400941F82020704734
:104FD000FEE780B54C4800684C4801680800C00FE7
:104FE000002805D04A488905890D50F821008047DE
:104FF0000020FFF7DFFF01BD80B546480068464846
:1050000001680800C00F002805D041488905890DB6
:1050100050F8210080470120FFF7CCFF01BD80B58B
:105020003E4800683E4801680800C00F002805D0CF
:1050300037488905890D50F8210080470220FFF785
:10504000B9FF01BD80B537480068374801680800DE
:10505000C00F002805D02E488905890D50F8210081
:1050600080470320FFF7A6FF01BD80B52F480068E9
:105070002F4801680800C00F002805D02448890582
:10508000890D50F8210080470420FFF793FF01BDF0
:1050900080B528480068284801680800C00F00282B
:1050A00005D01B488905890D50F82100804705204F
:1050B000FFF780FF01BD80B52048006820480168E7
:1050C0000800C00F002805D011488905890D50F847
:1050D000210080470620FFF76DFF01BD80B519480C
:1050E0000068194801680800C00F002805D008486A
:1050F0008905890D50F8210080470720FFF75AFFE6
:1051000001BD000080E200E00C582810000520409E
:105110002C5F082810582810040520401458281027
:1051200008052040185828100C0520401C5828104D
:10513000100520402058281014052040245828101D
:1051400018052040285828101C05204038B584B088
:105150002A4800F05DF8FDF783FE0020FCF726FEEC
:105160004FF49670FDF7CEFF0122254D290011F076
:105170001F008018BFF34F8F224C21602031203850
:105180000128F9DABFF34F8FBFF36F8F287800281B
:10519000E6D145F620011C4A01290DDB12F01F0063
:1051A0004118BFF34F8F2260203220390129FADAEB
:1051B000BFF34F8FBFF36F8F00F038F800200390DC
:1051C0003C2002905020019078200090BC230F4A90
:1051D00000210020FCF728FD01202870012115F096
:1051E0001F004018BFF34F8F25602035203801285D
:1051F000FADABFF34F8FBFF36F8FB1E780B2E60EDD
:105200001D7A082870EF00E00C070828746608284B
:1052100080B505490860FFF71DFEFDF7A2FF0020DD
:10522000FEF758FA01BD0000087A082830B40020C3
:105230003DE0B6EE000B01EE101AB8EEC11A204A9E
:10524000D2ED001A21EE211A1E4AD2ED001A81EE8B
:10525000211AB7EEC11A31EE001BBDEEC11B11EED3
:10526000102A01EE100AB8EEC11A174BD3ED001A3E
:1052700021EE211A154BD3ED001A81EE211AB7EE5B
:10528000C11A31EE000BBDEEC00B10EE103A104CFF
:105290002568E46804FB0322AA5C0E4B502404FB3F
:1052A00000F423445A54491C5029C2DB401C3C28BA
:1052B00001DA0021F8E700200749087030BC704788
:1052C0003066082834660828286608282C660828CE
:1052D0001866082874660828227A082872B61D49BC
:1052E00008684FEA102000F00F000E2808BF1A4986
:1052F0000D2808BF1949072808BF1949082808BF01
:105300001849086820F00B0008600868BFF34F8F49
:10531000154816490860BFF34F8F1549086840F0DB
:10532000070008601349086840F007000860BFF3F1
:105330004F8FBFF36F8F00200021124AE2E8020175
:105340006A45FBD10C4FB8470C4FB8470C4FB847D4
:10535000FEE70000000020400C0020400C0420402C
:105360000C0820400C0C20400000281008ED00E044
:1053700090EF00E094EF00E0514C28103D562810CB
:105380005D57281000FF0B28FFFF0B28453A5C4EA5
:1053900065775F706174685C4941525C435954346D
:1053A0004242375F4C6962726172792D6D6173742C
:1053B00065722832295C5365656B667265655F436B
:1053C00059543442425F4F70656E736F75726365F6
:1053D0005F4C6962726172795C6C69627261726958
:1053E00065735C73646B5C747669696268346D5C68
:1053F0007372635C73797374656D5C7379737465D0
:105400006D5F747669696268346D5F636D372E63B2
:1054100000000000453A5C4E65775F706174685C1F
:105420004941525C435954344242375F4C6962727D
:105430006172792D6D61737465722832295C5365D0
:10544000656B667265655F4359543442425F4F70C5
:10545000656E736F757263655F4C696272617279B4
:105460005C6C69627261726965735C73646B5C74B5
:105470007669696268346D5C7372635C64726976C4
:105480006572735C737973636C6B5C63795F73795A
:1054900073636C6B2E680000453A5C4E65775F70F5
:1054A0006174685C4941525C435954344242375FED
:1054B0004C6962726172792D6D6173746572283204
:1054C000295C5365656B667265655F435954344268
:1054D000425F4F70656E736F757263655F4C696292
:1054E000726172795C6C69627261726965735C7316
:1054F000646B5C747669696268346D5C7372635C5A
:10550000647269766572735C737973636C6B5C63E8
:10551000795F737973636C6B2E630000453A5C4E60
:1055200065775F706174685C4941525C43595434DB
:105530004242375F4C6962726172792D6D6173749A
:1055400065722832295C5365656B667265655F43D9
:1055500059543442425F4F70656E736F7572636564
:105560005F4C6962726172795C6C696272617269C6
:1055700065735C7A665F6465766963655C7A665FAD
:105580006465766963655F6970733230302E6300DD
:10559000453A5C4E65775F706174685C4941525C66
:1055A000435954344242375F4C6962726172792DBB
:1055B0006D61737465722832295C5365656B667220
:1055C00065655F4359543442425F4F70656E736F37
:1055D000757263655F4C6962726172795C6C696255
:1055E0007261726965735C7A665F6472697665720E
:1055F0005C7A665F6472697665725F7370692E6348
:105600000000000030B4002512E050F8042BD3074E
:1056100044BF4A44521E091F042942F8045BFAD2CF
:1056200013468C0744BF15809B1CC90748BF1D70DB
:1056300050F8041B0029E8D130BC704710B5074969
:1056400079441831064C7C44163404E00A68081D7D
:10565000114488470146A142F8D110BD2C0000003A
:10566000500000004EF68851CEF20001086840F468
:1056700070000860BFF34F8FBFF36F8F4FF0017062
:10568000E1EE100A704700007DFFFFFF2058000088
:105690000C070828B01300007466082800000000FA
:1056A0008FB8FFFFE8010000D80000002C5F082839
:1056B00004207146084202D0EFF3098001E0EFF3C5
:1056C000088000B50149884700BD000091432810BB
:1056D000801C800803D0401C801EFCD100BF704796
:1056E000EFF3108072B6704780F3108870470000A7
:1056F00000F00EF8002801D0FFF7A0FFAFF3008004
:105700000020AFF30080FFF721FD00F003F8000058
:105710000020704700F000B807463846FBF756FFF8
:10572000FBE700000D0A66696C65202573206C6933
:105730006E652025643A2025732E0D0A00000000B6
:1057400004207146084201D0EFF30980EFF308808E
:1057500000B50149884700BDF957281005480146A2
:1057600003B4684680F30988AFF30080FFF77AFF3F
:10577000FFF7BEFFA5EDF5FE00000828FFFF0B2890
:1057800000000020FF3F002000000000FF3F00005D
:1057900000127A00000000000024F40000800000E5
:1057A00000800000008000000D0A66696C652025FD
:1057B00073206C696E652025642E0D0A00000000C0
:1057C00066696C653A206D646B2F257300000000DC
:1057D000417373657274206572726F72000000000D
:1057E00066696C653A202573000000006C696E657F
:1057F0003A20256400000000816911F8021CC9B23A
:10580000016070470301000010110010000000004B
:105810000000000000000000000000000000000088
:105820000000000000000000000000000000000078
:105830000000000000000000000000000000000068
:105840000000000000000000000000000000000058
:10585000FFF7FEBFFFF72CBFFFF72ABFFFF728BFF8
:10586000FFF7FEBFFFF7FEBFFFF7FEBFFFF7FEBF6C
:10587000FFF7FEBFFFF7FEBFFFF7FEBFFFF7FEBF5C
:10588000FFF7FEBFFFF7FEBFFFF7FEBFF002FFD13D
:105890004F281004F1FF04F1FF04F1FF04F1FF04AD
:1058A000F1FF04F1770410070C070828BC00000082
:1058B0007804210810050000F04200007004100375
:1058C0003C430000A0081003674000006804126910
:1058D0000412660412600412650412640412630464
:1058E0004362402400106640F000400100F8FFFFD2
:1058F00078010101B45863070000000000000000B7
:105900000000000000000000000000000000000097
:105910000000000000000000000000000000000087
:105920000000000000000000000000000000000077
:105930000000000000000000000000000000000067
:105940000000000000000000000000000000000057
:105950000000000000000000000000000000000047
:105960000000000000000000000000000000000037
:105970000000000000000000000000000000000027
:105980000000000000000000000000000000000017
:105990000000000000000000000000000000000007
:1059A00000000000000000000000000000000000F7
:1059B00000000000000000000000000000000000E7
:1059C00000000000000000000000000000000000D7
:1059D00000000000000000000000000000000000C7
:0D59E00000000000000000000000000000BA
:040000051028575D0B
:00000001FF
